:020000040800F2
:10000000905900205D020008E9490008D93F000826
:10001000554700081F130008F558000800000000AD
:100020000000000000000000000000009D0100082A
:10003000051C000800000000F901000855500008E8
:1000400077020008770200087702000877020008AC
:10005000770200087702000877020008770200089C
:10006000770200087702000877020008770200088C
:10007000B11A000877020008BD1A000877020008CC
:1000800077020008C91A0008770200087702000802
:10009000770200087702000877020008770200085C
:1000A000770200087702000877020008770200084C
:1000B000770200087702000877020008770200083C
:1000C000770200087702000877020008770200082C
:1000D00077020008D1580008DD580008E9580008E8
:1000E000770200087702000877020008770200080C
:1000F000770200081551000877020008770200080F
:1001000077020008770200087702000877020008EB
:10011000FD53000877020008770200087702000804
:100120007702000877020008D51A00087702000855
:1001300077020008770200087702000877020008BB
:1001400077020008770200087702000877020008AB
:100150007702000877020008E11A00087702000819
:10016000770200087702000877020008770200088B
:1001700077020008770200087702000800000000FC
:100180007702000877020008DFF80CD000F07EFE4E
:1001900000480047716D0008905900202C4B1968E9
:1001A0000868B0E8F04F80F30988BFF36F8F4FF015
:1001B000000080F3118870470000000008480068C4
:1001C000006880F308884FF0000080F3148862B65E
:1001D00061B6BFF34F8FBFF36F8F00DF00BF00BF6B
:1001E00008ED00E0DFF80C00016841F470010160E7
:1001F000704700BF88ED00E0EFF30980BFF36F8F19
:10020000134B1A681EF0100F08BF20ED108A20E96A
:10021000F04F106009B44FF0500080F31188BFF325
:100220004F8FBFF36F8F07F0FDFD4FF0000080F39D
:10023000118809BC19680868B0E8F04F1EF0100F6B
:1002400008BFB0EC108A80F30988BFF36F8F704746
:1002500078000020EFF305807047000006488047D3
:1002600006480047FEE7FEE7FEE7FEE7FEE7FEE79B
:10027000FEE7FEE7FEE7FEE70551000889010008FA
:100280002DE9F05F0546002092469B4688460646CB
:10029000814640241BE0284641464746224600F05E
:1002A00003FC53465A46C01A914110D311461846D2
:1002B000224600F0EAFB2D1A67EB01084F46224662
:1002C0000120002100F0E1FB17EB00094E41201E48
:1002D000A4F10104DFDC484631462A464346BDE826
:1002E000F09F40EA01039B0703D009E008C9121FF1
:1002F00008C0042AFAD203E011F8013B00F8013BE0
:10030000521EF9D27047D2B201E000F8012B491E0B
:10031000FBD270470022F6E710B513460A460446A2
:100320001946FFF7F0FF204610BD421C10F8011BD4
:100330000029FBD1801A70470FB400B58DB010A909
:1003400009900B9000914FF0FF300A9000200C9024
:1003500005480690054807906A4609A80F9900F0DD
:10036000C7FB0DB05DF814FB0D0B00082B0B00084C
:100370002DE9FF5F1D464FF0FF3BD5E90146914651
:100380005F464FF00008A9697F1C01988847296AD9
:10039000824688470028F6D1BAF1FF3F0CD024F4FA
:1003A000C064002E19DD600614D5BAF12B0F09D0F8
:1003B000BAF12D0F0ED103E0584604B0BDE8F09F0E
:1003C00044F48064A9697F1C01988847761E8246A0
:1003D000002E02DDBAF1300F03D0B9F1000F26D0A4
:1003E00032E0A969761E44F400747F1C01988847A6
:1003F0008246002E05DDBAF1780F06D0BAF1580F0B
:1004000003D0B9F1000F10D01EE0B9F1000F02D0F7
:10041000B9F1100F18D1A969761E24F400747F1C5D
:10042000019888478246102002E0082000E00A2058
:10043000814609E008FB0908A969761E44F40074A6
:100440007F1C019888478246002E05DD49465046AC
:1004500000F03AFB0028EDDAE96901988847A00529
:1004600002D46FF00100A8E7E00725D1600613D59C
:10047000600502D5C8F1000000E0404629680A1D69
:100480002A600968220501D5087015E0220701D508
:10049000088011E008600FE02868011D29600068ED
:1004A000210502D580F8008006E0210702D5A0F8DA
:1004B000008001E0C0F8008038467EE72DE9FF4F5C
:1004C000087883B09946FF2805D0491C2D2804D010
:1004D0000024002008E000200BE00124F9E700EBF5
:1004E000800003EB4000491C0B78FF2BF7D104B1CF
:1004F000404200230293147819461D462D2C01D04A
:100500002B2C04D1521C2D2C13D000240294AA466B
:100510001478FF2C0FD00A25A3FB057801FB058179
:100520004FF0000C03FB0C11521CE3194AEB0101C4
:10053000EEE70124EAE7814453EA010002D019F50D
:10054000C87F06DA03980021C0E9001107B0BDE8B2
:10055000F08F0025AE4E2F46DFF8B882184600F027
:1005600059FCCDE90001B9F1000002DAC9F100043B
:1005700000E004460023A74A1AEB030B42EB045A9F
:1005800012E0E00707D02A4633463846414600F0DD
:1005900045F9074688462A4633461046194600F074
:1005A0003DF905460E466410002CEAD1DDE9000154
:1005B000B9F1000F5A46534606DA00F0A1F93A465F
:1005C000434600F09DF905E000F028F93A4643461D
:1005D00000F024F9029A0AB181F00041039AC2E9BD
:1005E0000001B3E72DE9FF4F1F468DB0D7E9014663
:1005F0004FF0FF382E2045464FF000090B90B969A7
:100600006D1C0E988847396A824688470028F6D1C3
:10061000BAF1FF3F0AD024F4D064002E11DDBAF104
:100620002B0F08D0BAF12D0F0BD102E0404611B0CC
:100630008DE744F48064B9696D1C0E988847824642
:10064000761E6946600501D52D2000E02B208DF82F
:10065000000001F1010B0DF1200809E0B9696D1CE2
:100660000E98884782460F9844F40074761E056001
:10067000002E02DDBAF1300FF0D00B998A453ED141
:1006800044F0800406E00F99681CA9F1010944F4C4
:1006900000740860B9696D1C761E0E988847824602
:1006A0003028F0D02BE00B998A4505D1200603D4E1
:1006B00044F08004761E18E0504605F005FF08B3AC
:1006C0000DF11301761E44F400748B4508D2AAF193
:1006D00030000BF8010B200607D5A9F1010003E05B
:1006E000200602D409F101008146A00502D50F9928
:1006F000681C0860B9696D1C0E9888478246002EF8
:10070000D1DC53E0002E51DDBAF1650F02D0BAF111
:10071000450F4BD1A00549D5B9696D1C24F440742F
:10072000761E0E9888478246002E0CDD2B2804D0BA
:10073000BAF12D0F07D144F48074B9696D1C0E987D
:1007400088478246761EE00501D52D2100E02B2149
:1007500008F8011BCDF82C8021E00DF12901761E4F
:1007600044F4007488450CD2AAF1300010F0FF0068
:1007700088F8000002D10B99884509D908F10108D1
:1007800006E0E00501D5244801E042F20F70814601
:10079000B9696D1C0E98884782460F980560002E37
:1007A00004DD504605F090FE0028D6D1F9690E9878
:1007B0008847FF208BF8000088F800000020069092
:1007C00007904B466A4608A906A8FFF777FEA005E2
:1007D00002D46FF001002AE714F0240F0AD0E007DA
:1007E00014D1DDE906123868031D3B600068C0E9DA
:1007F00000120BE0DDE9060100F015F90146E00703
:1008000004D13868021D3A600068016028460EE78E
:10081000000014400000F03FF1D8FFFF2DE9FE4F2B
:1008200081EA030404F0004421F0004100944FF0F9
:10083000000B23F0004350EA01045ED052EA0304A7
:100840005BD0C3F30A54C1F30A552C44A4F2F33429
:100850000194A0FB0254C1F3130141F48011C3F3CE
:10086000130343F4801301FB024400FB034E840A8C
:10087000970A44EA815447EA8357A4FB0768029524
:100880008D0A05FB07854FEA932C04FB0C542705C2
:10089000029D4FEA065847EA1637B5EB08056EEB9E
:1008A000070C870E920E47EA811742EA8312A7FBD4
:1008B0000201B6EB0B0164EB00042B0D43EA0C3391
:1008C0005E1844EB1C50DA465146E7FB0201C5F3C3
:1008D00013044FEA0B3343EA14534FEA0432019CEA
:1008E00043EA0603A4F10C040294009CCDE900B491
:1008F00000F09BF903B0BDE8F08F00200146F9E756
:100900002DE9F04D81EA030404F0004B21F000458D
:1009100014464FF0000A23F0004150EA050220D0AF
:1009200054EA01021DD0C5F30A570246C5F313036A
:10093000C1F31300C1F30A5640F4801543F4801349
:10094000A7EB0608101BD64608F2FD3873EB05002E
:1009500002D308F1010801E092185B41B8F1000FE1
:1009600003DA00200146BDE8F08D00204FF480112D
:10097000064684460EE0171B73EB050705D3121BD2
:1009800063EB050306434CEA010C49084FEA3000CB
:1009900092185B4150EA0107EDD152EA030012D0F0
:1009A00082EA040083EA0501084305D0101BAB412D
:1009B00006D20122002306E000224FF0004302E0AD
:1009C0006FF0010253101AEB06004CEB085110EBCC
:1009D0000A0041EB0B01BDE8F04D00F017B90EB570
:1009E000C10F80EAE0700844CA07002140F2334397
:1009F0008DE80E000A460B4600F017F903B000BD63
:100A000000F0004230F000400AD0C10D01F56071E5
:100A1000C0F3160042EA0151C20840071143704773
:100A200000200146704701F0004330B421F000413E
:100A300050EA010206D00A0DA2F56072C1F313015B
:100A4000002A02DC30BC00207047440F44EAC10495
:100A5000C100E01830BC00EBC25000F077B830B5F0
:100A60000B46014600202022012409E021FA02F56C
:100A70009D4205D303FA02F5491B04FA02F5284406
:100A8000151EA2F10102F1DC30BD202A04DB203A60
:100A900000FA02F1002070479140C2F1200320FAD1
:100AA00003F3194390407047202A04DB203A21FACF
:100AB00002F00021704721FA02F3D040C2F1200277
:100AC00091400843194670473A2800D2303820F048
:100AD0002002412A01D3A2F13700884201D34FF00E
:100AE000FF30704702681144137801601846704760
:100AF000D16004495161044911620021116111461C
:100B000000F0EEB9E50A0008D50E0008426842B1CF
:100B1000016811F8013B23B1521EC0E900121846CA
:100B200070470121C160881E704742685AB1C3688E
:100B3000016843B983688B4205D0491E521CC0E945
:100B40000012002070474FF0FF3070470029A8BF07
:100B50007047401C490008BF20F00100704710B4E6
:100B6000B0FA80FC00FA0CF050EA010404BF10BC9B
:100B7000704749B1CCF1200421FA04F411FA0CF1C8
:100B800018BF012121430843A3EB0C01CB1D4FEA01
:100B900000614FEA102042BF002010BC704700EBFC
:100BA000C35010440029A4BF10BC7047401C49002A
:100BB00008BF20F0010010BC7047F0B400F0004204
:100BC00021F0004120F00040CE0DC30DC1F316010D
:100BD00041F40001C0F316004C42154640F40000F9
:100BE000761E09E010EB440002D582F0004240423C
:100BF0008842F7D840005B1EB342F9DA18B1F0BC66
:100C00000021FFF7ACBF2846F0BC704710B5141E9A
:100C100073F1000408DA401C41F1000192185B41B5
:100C20001A4301D120F0010010BD2DE9F04D92468C
:100C30009B4611B1B1FA81F202E0B0FA80F22032A3
:100C40009046FFF722FF04460F4640EA0A0041EAB9
:100C50000B0153465A46084313D0114653EA01008C
:100C600019D0C8F140025046FFF71EFF05460E4658
:100C7000504659464246FFF708FF084305D0012079
:100C800004E020463946BDE8F08D0020054346EAE1
:100C9000E0762C4337430A986305E40AA0EB08008A
:100CA0000022FD0A44EA47540A3002D500200146DA
:100CB000E9E7010510196941DDE9084500196941B5
:100CC000BDE8F04DA2E72DE9FE4F804681EA030022
:100CD000C00F0C46009021F0004123F00045B8EB16
:100CE0000200A94105D24046214690461C460B46CB
:100CF000024623F00040104347D0270DC7F30A00F7
:100D0000C3F30A510290401A019040286BDAC3F3F2
:100D1000130040F4801B0098924620B10023D2EBD0
:100D2000030A63EB0B0B01985946C0F14002504691
:100D3000FFF7ABFE06460D4650465946019A00F0B5
:100D4000B7F810EB08006141002487EA115284EAE9
:100D5000E7731A4340D0009A62B3019A012A4FEA1E
:100D6000075215DC001B61EB02014FF0004202EA62
:100D70000752CDE90042001C41F5801132462B4656
:100D8000FFF753FF03B0BDE8F08F40462146F9E777
:100D9000001B61EB0201001C41F5801300185B4150
:100DA0002018A2F5001747EB030140EAD570B619E9
:100DB0006D4111E06D084FEA360645EAC0754FEA0D
:100DC0000752001B61EB0201001C41F5801149082C
:100DD0004FEA30000019514132462B4603B0BDE8BE
:100DE000F04FFFF713BF0098012240000023D0EB23
:100DF000020263EBE073009821464FEAE074B8EB1F
:100E0000000061EB0401E9E783F000435BE781F058
:100E1000004158E70EB540F2334202920022CDE97C
:100E200000221346FFF701FF03B000BDC1F30A52D1
:100E3000C1F3130140F2FF3341F480119A4202DA08
:100E400000200146704740F233439A42A2F23342F7
:100E500002DC5242FFF728BEFFF717BE30B5041E72
:100E600071F1000404DB4FF00044404264EB0101E7
:100E7000141E73F1000405DB1C464FF00043524280
:100E800063EB0403994208BF904230BD064C074D06
:100E900006E0E06840F0010394E80700984710344A
:100EA000AC42F6D3FFF774F9649000088490000810
:100EB000202A06DBCB17203A41FA02F043EAE0731E
:100EC00006E041FA02F3D040C2F12002914008430B
:100ED00019467047C0B24FF4F05100F097B90000C6
:100EE0002DE9F34F8BB04FF0000801F10C000C46D8
:100EF0004FF0010B46460DF1080A0190626901218D
:100F000001989047051E2DD0252D2CD0216A8847A9
:100F1000C0B16269012101989047216A8847002881
:100F2000F7D1411E62690198904700E0761CA169E3
:100F30000B988847216A88470028F7D1E1690B9808
:100F40008847DBE7A1690B9888470746A84201D18B
:100F5000761CD3E7E1690B9888477F1C02D1B8F172
:100F6000000F6FD046E1002762693D46394601987F
:100F700090472A2804D162690121019890470125F0
:100F8000DFF884926269012101989047A0F1300155
:100F90000A290AD24F45E5DC07EB870100EB410740
:100FA000303FDFD445F01005ECE7E90601D46FF0DF
:100FB00000476C280AD04C2814D0682815D06A281D
:100FC0000DD074281CD07A281AD01DE06269012146
:100FD000019890476C2802D045F0040514E045F0D4
:100FE00002050DE045F020050AE062690121019843
:100FF0009047682802D045F0080505E045F40065F3
:101000006269012101989047C4E9015765283DD0E4
:1010100019DC58287AD00CDC452837D004DC252888
:1010200026D0412831D131E046282FD047282CD175
:101030002CE05B2877D0612828D063287CD06428F6
:1010400023D15AE0D0E06F2848D008DC66281DD0B4
:1010500067281BD0692821D06E2816D127E0702878
:1010600045D0732868D0752847D078280DD14DE039
:10107000A1690B988847054625283FF469AFE169C7
:101080000B9888476D1C3FF46AAFB3E023466A466D
:101090006FF001000B99FFF7A5FA9EE045F04000C4
:1010A0006060A80723464FF0000236D43EE0E80710
:1010B0007FF447AF2068011D21600068290501D534
:1010C00006701BE7290701D5068017E7A90703D596
:1010D000F117C0E9006111E706600FE745F0400035
:1010E0006060A80723464FF0080216D41EE040F6C1
:1010F0000E0125EA0100606016E045F040006060E6
:10110000A80723464FF00A0207D40FE045F040003D
:101110006060A80708D5234610226FF001000B99E4
:10112000AFF3008059E007E0234610226FF0010082
:101130000B99FFF71DF950E04FF000094F464B4661
:10114000632802D05B2806D040E0E80601D40120E5
:10115000A06001273AE062690121019890475E286A
:1011600005D14FF00109626949460198904721690C
:1011700039B900210A46534643F82120491C082961
:10118000FADBB0B3216969B9C11700EBD162531121
:101190000AEB830122F01F02821A01200B689040A3
:1011A00003430B6062690121019890475D28E8D1F3
:1011B000B9F1000F09D00020514651F82020D24348
:1011C00041F82020401C0828F7DB02AB224600979C
:1011D0006FF001000B99AFF3008000280CDA401C7F
:1011E00008D1BBF1000F05D04FF0FF300DB0BDE8C6
:1011F000F08FFFE74046F9E7E90701D108F1010860
:1012000006444FF0000B79E6CCCCCC0C7F2801D9FA
:10121000002208E0064A02EB5002C007127800D113
:10122000120902F00F0201209040084070470000B0
:10123000CC8F000830B58C1810F8012B12F00F037A
:1012400001D110F8013B120906D110F8012B03E07F
:1012500010F8015B01F8015B5B1EF9D101E001F8B8
:10126000013B521EFBD1A142E6D3002030BD00005D
:101270002DE9F0410124DFF84880124E002700BF1D
:1012800058F8240002F0D6FE0225377003213420DE
:1012900004F080FB642000F0B9FE307800280CD107
:1012A0006D1EF2D1641C0A2CEADB07A004F01CFEC0
:1012B000BDE8F0410AA004F017BEBDE8F0810000CF
:1012C000C08C00080000002063616E206E6F7420E7
:1012D00066696E642073656E736F720D0A0000009C
:1012E000706C6561736520636865636B20796F75E9
:1012F0007220636F6E6E656374696F6E0D0A000015
:1013000010B590ED060AD1ED0B0A044630EE200A26
:1013100080ED060A05F066FD84ED060A10BDFEE7C5
:1013200010B591ED070AD0ED0A0A1346044630EED7
:10133000604AB0EE440A05F005FD10EE100A474978
:10134000884201DC012010BD14EE100AB0F17E5F6E
:1013500008DBB3EE0E1AB0EE413AF0EE412AF0EEA1
:10136000413A2CE014EE100A10F1814F08D3FBEE45
:101370000E2AB0EE623AF0EE623AB0EE621A1EE069
:10138000B0EE440A184604F00BFFB0EE403AB0EE5F
:10139000440A03F1280004F003FFF0EE402AB0EE07
:1013A000440A03F1780004F0FBFEF0EE403AB0EEA0
:1013B000440A03F1500004F0F3FEB0EE401A94ED3D
:1013C000000AB4EEC10AF1EE10FA02D2B0EE401AF1
:1013D00008E0F1EE400AF4EEC10AF1EE10FA01DD88
:1013E000B0EE601AB4EEE30AF0EE411AF1EE10FA34
:1013F00002D2F0EE403A08E0F1EE400AF4EEE30AE1
:10140000F1EE10FA01DDF0EE603AB4EEE20AB0EE71
:10141000631AF1EE10FA02D2F0EE402A08E0F1EE83
:10142000400AF4EEE20AF1EE10FA01DDF0EE602A75
:10143000B4EEC30AF0EE620AF1EE10FA08D3B1EE90
:10144000400AB4EEC30AF1EE10FA01DCB0EE430A32
:10145000204604F0E2FE002010BD0000CDCC4C3D43
:1014600070B590ED0A0AD1ED000A1446034670EEFD
:10147000602AB0EE620A05F065FC10EE100A5449CD
:10148000884201DC012070BD04F15000B0EE620A18
:10149000054604F085FEF0EE400A93ED000AF4EEF6
:1014A000C00AF1EE10FA14DCB0EE620A284604F02D
:1014B00077FEF0EE400A93ED000AB1EE400AF4EE3A
:1014C000C00AF1EE10FA04D3B0EE620A284604F026
:1014D00067FEB0EE403A04F17800B0EE620A0546CD
:1014E00004F05EFEF0EE400A93ED000AF4EEC00A4E
:1014F000F1EE10FA14DCB0EE620A284604F050FE59
:10150000F0EE400A93ED000AB1EE400AF4EEC00A94
:10151000F1EE10FA04D3B0EE620A284604F040FE61
:10152000F0EE403A04F12800B0EE620A054604F0FD
:1015300037FEF0EE400A93ED000AF4EEC00AF1EE39
:1015400010FA14DCB0EE620A284604F029FEF0EE30
:10155000400A93ED000AB1EE400AF4EEC00AF1EE43
:1015600010FA04D3B0EE620A284604F019FEB0EE79
:10157000404AB0EE620A204604F012FEF0EE400A45
:1015800093ED000AF4EEC00AF1EE10FA14DCB0EEAE
:10159000620A204604F004FEF0EE400A93ED000AD1
:1015A000B1EE400AF4EEC00AF1EE10FA04D3B0EE48
:1015B000620A204604F0F4FDF0EE431AB0EE631A1E
:1015C000F0EE440A184604F028FE002070BD00002A
:1015D000CDCCCC3D2DE9F04104462DED0A8B6A4877
:1015E00004F0F0FC8046694804F0ECFC07466848CB
:1015F00004F0E8FC0646674804F0E4FC0546404673
:10160000FFF7EDF99FED64AB53EC1A2BFFF778F978
:101610009FED63BB53EC1B2BFFF700F99FED62CBF3
:1016200053EC1C2BFFF7FAF8FFF7FDF909EE100A4F
:101630003846FFF7D4F953EC1A2BFFF761F953EC56
:101640001B2BFFF7EBF853EC1C2BFFF7E7F8FFF72A
:10165000EAF908EE100A3046FFF7C1F953EC1A2BED
:10166000FFF74EF953EC1B2BFFF7D8F853EC1C2B6C
:10167000FFF7D4F8FFF7D7F908EE900A2846FFF7EE
:10168000AEF953EC1A2BFFF73BF953EC1B2BFFF78A
:10169000C5F853EC1C2BFFF7C1F8FFF7C4F900EEB7
:1016A000100ADFED430AF6EE002A89EE201AC8EE92
:1016B000201A84ED0B1AC8EEA03AC4ED0E1A80EE83
:1016C000203A71EE210AC4ED113A20EEA22A84EDEF
:1016D000143A94ED0A1A73EE830A31EE091A60EE99
:1016E000A20A84ED0A1A94ED0D1A31EE081A84ED5F
:1016F0000D1A94ED101A31EE281A84ED101A94ED9B
:10170000131A31EE001A84ED131A94ED091A31EE12
:10171000091A84ED091A94ED0C1A31EE081A84EDB9
:101720000C1A94ED0F1A31EE281A84ED0F1A94ED6D
:10173000121A31EE001A84ED121A32EE201A70EEEF
:10174000C20A21EE221A84ED021AB3EE0E1AC0EE7E
:10175000811A79EE080A70EEA80A70EE800AB5EEDA
:10176000000AC4ED031A94ED011A00EE801A84ED0C
:10177000011A94ED001A00EE801A84ED001ABDECF7
:101780000A8BBDE8F081000050050020980500207C
:10179000E00500202806002000000000C09BF0406B
:1017A000FCDEA63FFB2109400000000000001A40BB
:1017B000CDCCCC3C10B591ED080AD0ED0A0A034619
:1017C000B8EEC00A104670EEC02AB0EE620A04F00D
:1017D000E7FCF0EE400AB0EE620A05F0B3FA10EE54
:1017E000100AB0F17E5F01DA012010BDB0EE600A90
:1017F000184604F00FFD002010BD000070B515461E
:101800000446D1ED040A90ED0B0A05F0FDF9F0EE67
:10181000400A9FED1D1A05F095FA10EE100AB0F17E
:101820007C5F06DAB0EE410A204604F0F3FC0120AA
:1018300070BD10EE900A1549884202D39FED140A3C
:101840000CE010EE900A1349884202DB9FED120A69
:1018500004E0B0EE600A284604F0A2FCD4ED000AD1
:10186000F4EEC00AF1EE10FA06D3F1EE600AF4EEDF
:10187000C00AF1EE10FA01DDB0EE600A204604F075
:10188000C9FC002070BD0000000000000000A0C1E5
:10189000000082C20000A04100008242884203DBB7
:1018A000904201DC012070470020704710B5314C98
:1018B0006078632853D00EDC55282BD006DC4228F4
:1018C0002ED0432849D0522850D13CE061280DD079
:1018D00062284BD12DE06D280ED002DC652845D161
:1018E0000FE0722833D0752840D10FE004F02EFAB3
:1018F00000283BD020A037E004F046FA03E024A003
:1019000032E004F05FFA0028F9D12FE0062002E06F
:1019100025A029E0002004F071F90028F8D125E085
:10192000062004F0E9F908B125A01DE04FF4E130EC
:1019300006E0022004F0E0F90028F5D14FF416503B
:1019400002F078FB12E0062002E022A00CE0032067
:1019500004F0A8F90028F8D108E01E2000E00220D9
:1019600004F076F910B120A004F0BEFAFF206070F8
:1019700010BD0000000000200D0A53657420416373
:101980006343616C69204572726F720D0A0000003A
:101990000D0A536574204D616743616C692045727F
:1019A000726F720D0A0000000D0A536574204261C7
:1019B0006E647769647468204572726F720D0A00F4
:1019C0000D0A5365742042617564204572726F720E
:1019D0000D0A00000D0A536574205261746520459C
:1019E00072726F720D0A00000D0A53657420525313
:1019F00057204572726F720D0A0000002DE9F04702
:101A000000270425DFF8A080DFF8A09050383E467C
:101A100001F1060A102845D2DFE800F01108130C86
:101A20001517191B1D1F2144444444233424032546
:101A3000402702E03D2403252E27012613E0302411
:101A400011E037242BE03A2429E041240BE045241F
:101A500009E0492407E04D2405E0512403E0552422
:101A600001E0D8F82440032A19D04DB16A0009EBEF
:101A70004400FEF736FCD8F814202946204690474B
:101A8000002E0FD0720009EB47005146FEF729FCEB
:101A900031463846D8F81420BDE8F04710470325F2
:101AA0000026E3E7BDE8F087000100206C54002029
:101AB000014800F039B9000088090020014800F011
:101AC00033B90000E8090020014800F02DB90000FA
:101AD00028090020014800F027B90000C8080020AC
:101AE000014800F021B900006808002001681823AF
:101AF000CAB2103AB2FBF3F2054B6FF30901032AA5
:101B00009B5CC36500D9091D8165084670470000CC
:101B1000AC8D000810B5014600208B698A6A4FF031
:101B2000C07453B1B3F5005F15D072B1012A0CD067
:101B3000022A0AD0032A09D104E01AB1012A06D0E8
:101B4000022A03D1C96AC90100D5012010BDC96AA2
:101B5000A142FAD010BD002AF7D0012AF2D0022A01
:101B6000F3D0032AF3D010BD30B50468256825F4FE
:101B700080252560046863608368402B036803D078
:101B800099600068C26030BD9A600068C16030BD75
:101B900013A188B0D1E90001CDE90501142212A1F9
:101BA0006846FEF79EFB0025144C4FF0FF370126D8
:101BB0003946012005F05EFE606930B1072205A9B3
:101BC0000F4802F0C5F96561F2E7A0690028EFD07F
:101BD000132269460A4802F0BBF9A561E661E7E70E
:101BE000446F6E650D0A000055704C696461724166
:101BF0006C6C6F7753746172740D0A0000000020E2
:101C000020080020704700F001BA72B6FEE72DE907
:101C1000F0410446876D00F0C5FB064694F8350098
:101C20000025022806D08020606584F83450012009
:101C3000BDE8F0812068016821F01601016020688C
:101C4000416921F080014161206C08B9A06C20B18C
:101C50002068016821F0080101602068016821F016
:101C6000010101600CE000F09DFB801B052807D9F5
:101C700020206065032084F8350084F83450D7E7CD
:101C800020680068C007EED194F85C103F208840BF
:101C9000B860012084F8350084F834500020C7E78C
:101CA00090F83510022903D080214165012070474A
:101CB000052180F835100068016821F001010160FC
:101CC0000020704770B504002BD094F8350002282E
:101CD00026D02068016821F00101016020680025FC
:101CE000056020684560206885602068C5602068C0
:101CF00005612168212048612046FFF7F7FEE56372
:101D000025646564A564E564256594F85C203F213D
:101D100091408160656584F8355084F83450002026
:101D200070BD012070BD00002DE9F84304464FF05E
:101D30000009CDF8009063484FF41651A56D006876
:101D4000B0FBF1F72E6894F85C10082000FA01F15E
:101D500031420FD021680A6852070BD50A6822F079
:101D600004020A6094F85C108840A860606D40F03E
:101D70000100606594F85C104FF0010808FA01F06A
:101D8000304208D021684969090604D5A860606D11
:101D900040F00200606594F85C10042088403042F6
:101DA00008D021680968890704D5A860606D40F0F3
:101DB0000400606594F85C1010208840304218D010
:101DC00021680968090714D5A860206801684903DB
:101DD00004D50068000308D5A16C07E00168C905B7
:101DE00003D4016821F008010160216C09B120468B
:101DF000884794F85C1020208840304231D0216818
:101E00000968C9062DD5A86094F835000528206812
:101E1000016806D0490347D5006800031DD4616CF2
:101E20001CE021F0160101602068416921F0800169
:101E30004161206C08B9A06C20B12068016821F0D4
:101E40000801016094F85C103F208840A86084F885
:101E5000358084F83490216D1FE0E16B09B1204694
:101E60008847606D00282BD0606DC00714D0052016
:101E700084F835002068016821F0010101600098B4
:101E8000401C0090B84203D820680068C007F6D113
:101E900084F8358084F83490E16C002910D001B0CA
:101EA0002046BDE8F04308470168C905D5D401685C
:101EB00021F01001016084F8358084F83490CCE77B
:101EC000BDE8F883740000202DE9F041044600F0DD
:101ED00069FA06465CB1022084F83500002584F8D2
:101EE00034502068016821F0010101600DE00120FB
:101EF000BDE8F08100F056FA801B052805D92020A6
:101F00006065032084F83500F2E720680068C007A8
:101F1000F0D12268116820480140D4E90103184338
:101F2000D4E903363343184363691843A36918435C
:101F3000E3691843236A18430843616A042903D1FB
:101F4000D4E90B1319430843106020684069666A9E
:101F500020F0070130460E43012704280CD1A06A67
:101F60000643E06A40B12046FFF7D4FD20B140208F
:101F7000606584F83570BAE7206846612046FFF74F
:101F8000B5FD94F85C203F2191408160656584F83F
:101F900035700020ACE700003F8010F02DE9F041E3
:101FA0000446866D90F83400002501280DD00120EC
:101FB00084F8340094F835700020012F07D084F89D
:101FC000340002252846BDE8F0810220FBE7022705
:101FD00084F8357060652046FFF7C6FD94F85C1004
:101FE0003F208840B0602068016841F01601016020
:101FF000206C20B12068016841F008010160206870
:10200000016841F001010160DCE7000070B50446A1
:1020100000F0C8F90546601C02D00448007804446A
:1020200000F0C0F9401BA042FAD370BD6800002048
:102030002DE9F04F0022DFF838B101264FF00F09EB
:1020400006FA02F401EA0403A3427DD122F0030759
:102050005F44D7F8088895074FEA157C09FA0CFA0F
:102060000AEA0805DFF80C81404502D14FF000086C
:1020700032E0DFF80481404502D14FF001082BE047
:10208000DFF8F880404502D14FF0020824E0DFF885
:10209000F080404502D14FF003081DE0DFF8E480F6
:1020A000404502D14FF0040816E0DFF8DC804045DF
:1020B00002D14FF005080FE0DFF8D080404502D193
:1020C0004FF0060808E0DFF8C880404502D14FF025
:1020D000070801E04FF0080808FA0CF8A84522D1DB
:1020E0002C4DD5F800C02CEA030CC5F800C005F152
:1020F000040CDCF800509D43CCF80050254D0C3505
:10210000D5F800C02CEA030CC5F800C02D1FD5F887
:1021100000C02CEA030CC5F800C0D7F8085825EA1F
:102120000A05C7F80858056857000323BB409D43BC
:102130000560D50800EB8505D5F820C057074FEAA4
:10214000D76809FA08F700E00CE02CEA070CC5F89C
:1021500020C0C5689D43C5604568A5434560846847
:102160009C438460521C102AFFF46AAFBDE8F08FD4
:10217000003001400000024000040240000802401C
:10218000000C0240001002400014024000180240FF
:10219000001C0240003C01402DE9F84FDFF8BCA1D3
:1021A0000022012503264FF00F090AF1040BAAF1C2
:1021B000040E00BF0B6805FA02F42340A34270D15D
:1021C0000F7907F00307012F01D0022F16D187687E
:1021D0004FEA420806FA08FC27EA0C07D1F80CC0BF
:1021E0000CFA08FC4CEA070CC0F808C04768A74383
:1021F0000C79C4F3001494403C4344600C79E443EC
:10220000A4070AD0C4684FEA420C06FA0CF7BC4394
:102210008F6807FA0CF72743C7600C7904F00304B2
:10222000022C12D1D40800EB840CDCF820405707B4
:10223000FF0E09FA07F824EA0804D1F8108008FA1A
:1022400007F848EA0408CCF8208004684FEA420CFA
:1022500006FA0CF7BC430F7907F0030707FA0CF7EF
:10226000274307604C6814F4403F70D03C4C27680B
:1022700047F480472760246822F0030704F4804471
:102280000094384C07EB040CDCF8084897074FEA39
:10229000177809FA08F7BC43334FB84202D1002738
:1022A00024E054E0314FB84201D101271EE0304F05
:1022B000B84201D1022719E02E4FB84201D10327BD
:1022C00014E02D4FB84201D104270FE02B4FB84244
:1022D00001D105270AE02A4FB84201D1062705E0BF
:1022E000284FB84201D1072700E0082707FA08F76E
:1022F0002743CCF80878DAF800405746D1F804C0F4
:102300009C435FEACC2C00D51C433C60DBF80040CA
:102310005F46D1F804C09C435FEA8C2C00D51C4377
:102320003C60DEF800407746D1F804C09C435FEA89
:102330008C3C00D51C433C60084F083F3C68D1F8FA
:1023400004C09C435FEACC3C00D51C433C60521C5B
:10235000102AFFF42FAFBDE8F88F0000083C0140C1
:1023600044380240003001400000024000040240B6
:1023700000080240000C024000100240001402401D
:1023800000180240001C0240426921EA02030A4090
:1023900043EA0241816170470AB1816170470904D3
:1023A000FBE70000014880687047000068000020DB
:1023B00002488168027811448160704768000020FB
:1023C0000B4810B5016841F400710160016841F4E7
:1023D00080610160016841F480710160032000F0B8
:1023E000AFF80F2000F006F800F050F8002010BD04
:1023F000003C024030B505461F4887B00024016804
:1024000041F480710160006806A900F480700090BA
:1024100001A800F041F90498A8B100F05DF940006E
:102420001649174AB0FBF1F11648491E026040F206
:10243000E732C0E90324C0E90114846100F0C6FB5F
:10244000040003D015E000F047F9E9E70D4800F07B
:1024500025FC04000DD12D2000F045F8102D07D2E9
:10246000002229462D2000F04BF80748056000E0C7
:10247000012407B0204630BD4038024040420F00E2
:1024800000200040480A00206C0000200C4882B068
:10249000016841F480410160006800F480400090D0
:1024A0000748001F016841F0805101600068002268
:1024B00000F0805000900F21901E02B000F020B874
:1024C0004438024000280DDB00F01F02012191403A
:1024D0004009800000F1E020C0F88011BFF34F8F69
:1024E000BFF36F8F7047002809DB00F01F02012146
:1024F00091404009800000F1E020C0F800117047D1
:10250000F0B40E4B1B680C46C3F30223C3F107055E
:10251000042D00D90425191D072901D2002300E04C
:10252000DB1E012606FA05F1491E214099409E4016
:10253000761E16403143F0BC03F054BD0CED00E0B4
:10254000064900F0070208684FF6FF03184040EA0A
:102550000220034A10430860704700000CED00E0C1
:102560000000FA052DE9F0470E46050065D0DFF8BA
:102570001481D8F80000F7B200F00700B04207D28B
:1025800088F80070D8F8000000F00700B04254D17D
:1025900028683D4C810712D5400703D5206840F4D8
:1025A000E05020602878000703D5206840F46040A0
:1025B00020602068A96820F0F00008432060287897
:1025C000C0072DD0304968680839012812D0022888
:1025D00013D0032811D00968890700292DDA216852
:1025E00021F0030101432160FFF7DCFE814641F247
:1025F000883A0EE009688903EFE709688901ECE78A
:10260000FFF7D0FEA0EB0901514502D90320BDE838
:10261000F0872068696800F00C00B0EB810FEFD103
:10262000D8F80010404601F00701B14207D9077001
:10263000006800F00700B04201D00120E7E72878E9
:10264000400705D52068E96820F4E0500843206081
:102650002878000706D52068296920F4604040EA00
:10266000C100206000F058F82168084AC1F3031146
:10267000515CC8400649086006480068FFF7BAFE8A
:102680000020C4E7003C024008380240B48D000836
:10269000740000206C0000200F2202600C4A1368B6
:1026A00003F003034360136803F0F00383601368CF
:1026B00003F4E053C36012684FF4E05303EAD2021C
:1026C00002610448006800F00700086070470000DD
:1026D00008380240003C0240044805490068096887
:1026E000044AC1F38221515CC84070477400002045
:1026F00008380240C48D000804480549006809688C
:10270000044AC1F34231515CC84070477400002054
:1027100008380240C48D0008154810B5006810F054
:102720000C02144813D04110042A0FD0082A0ED1ED
:102730000F4C241F2268236802F03F025B0207D57A
:102740002068C0F38810A0FB010106E0084610BD18
:102750002168C1F38811A1FB00010023FDF790FD62
:102760002168C1F30141491C4900B0FBF1F010BDE3
:10277000083802400024F4002DE9F84F04006ED020
:102780002078DFF84C93C007A9F104054AD009F17D
:1027900004000168C1F38101012908D00068C0F379
:1027A000810002280AD1D9F80000400206D5286825
:1027B000800337D560680028E1D033E06068B0F569
:1027C000803F10D0B0F5A02F286810D020F48030C2
:1027D0002860286820F4802028606068A8B1FFF78E
:1027E000E1FD06460DE0286840F48030F4E740F44F
:1027F00080202860F7E700BFFFF7D4FD801B642826
:1028000073D828688003F7D50CE0FFF7CBFD0646A8
:1028100005E000BFFFF7C6FD801B6428F0D82868DC
:102820008003F7D42078DFF8AC8280074FF0000AED
:102830003ED5A748001D016811F00C0F08D00068B4
:10284000C0F3810002280BD1D9F80000400207D460
:102850002868800716D5E068012800D112E033E12E
:10286000E068B8B10120C8F80000FFF79BFD0646FC
:1028700005E000BFFFF796FD801B0228C0D828683E
:102880008007F7D52868216920F0F80040EAC100E8
:1028900028600DE0C8F800A0FFF784FD064604E0BC
:1028A000FFF780FD801B02281FD828688007F7D417
:1028B0002078000722D5864F87486169703771B14B
:1028C00001210160FFF76EFD064604E0FFF76AFD97
:1028D000801B022809D838688007F7D50EE0C0F8B9
:1028E00000A0FFF75FFD064605E082E0FFF75AFD16
:1028F000801B02287DD838688007F7D420784007ED
:1029000068D5DFF8CCB100270BF13C0BDBF80000F9
:10291000C0000BD4DBF8001041F08051CBF8001060
:10292000DBF80000012700F0805000906B4E30680B
:10293000C00510D4306840F480703060FFF732FD7D
:10294000009005E0FFF72EFD0099401A022850D8AC
:102950003068C005F6D55E4EA0686C3601280FD0F1
:102960000528306810D020F001003060306820F079
:1029700004003060A068B8B1FFF714FD00900FE0CC
:10298000306840F00100F4E740F004003060F7E701
:10299000FFF708FD0099411A41F28830814266D85C
:1029A00030688007F4D50EE0FFF7FCFC009007E0EC
:1029B000FFF7F8FC0099411A41F28830814256D85D
:1029C00030688007F4D42FB1DBF8001021F080517B
:1029D000CBF80010A069C8B33D49091D0968C1F3CF
:1029E000810102294AD00228504607D0C8F8600069
:1029F00000E03CE0FFF7D6FC04463BE04746C8F861
:102A00006000FFF7CFFC064605E000BFFFF7CAFCF9
:102A1000801B02282BD828688001F7D4D4E907014D
:102A20000843A16A2E4A490802EB0141626A41EA61
:102A30008211084394F82C1040EA0161C9F8001093
:102A400001203866FFF7AEFC044606E03EE000BF1A
:102A5000FFF7A8FC001B022809D828688001F7D5D9
:102A600034E000BFFFF79EFC001B022802D90320C0
:102A7000BDE8F88F28688001F4D427E00128F7D05A
:102A8000D9F80000E26900F4800191421CD1226A69
:102A900000F03F01914217D147F6C071626A0140D0
:102AA000B1EB821F10D1A26A4FF0FF3300F4403126
:102AB00003EB5202B1EB024F06D194F82C1000F058
:102AC0007060B0EB016F01D00120D1E70020CFE7AB
:102AD0000438024000004742800E47420070004028
:102AE0000000FFFF7047704710B590F83C20012AA6
:102AF00022D0012280F83C20CA688C6822F44072FF
:102B000022434C6822F4806222430C6822F4006263
:102B100022430C6922F4805222434C6922F4005271
:102B20002243C969002322F480420A4301684A64AF
:102B300080F83C30002010BD022010BD70B590F828
:102B40003C20012A32D0012480F83C40022280F847
:102B50003D2003685A689D6822F070060A68324377
:102B60005A60134B02689A4214D0B2F1804F11D0D0
:102B7000104B9A420ED0104B9A420BD00F4B9A42F8
:102B800008D00F4B9A4205D00E4B9A4202D00E4B02
:102B90009A4204D1496825F080031943916080F876
:102BA0003D40002180F83C10084670BD022070BDF9
:102BB000000001400004004000080040000C0040FC
:102BC00000040140004001400018004010B504001E
:102BD00003D094F83D0010B107E0012010BD0020A3
:102BE00084F83C00204600F01FF8022084F83D00E5
:102BF000211D206802F094FA012084F8460084F830
:102C00003E0084F83F0084F8400084F8410084F8D6
:102C1000420084F8430084F8440084F8450084F8B6
:102C20003D00002010BD000008B5174A0168174894
:102C3000914207D1016841F001010160006800F094
:102C4000010009E0124A914208D1016841F4803143
:102C50000160006800F48030009008BD0D4A914288
:102C600007D1016841F400310160006800F40030D0
:102C7000F2E7094A9142F0D1016841F480210160F4
:102C8000006800F48020E7E700000140443802407B
:102C900000400140004401400048014090F83D10D0
:102CA000012901D001207047022180F83D10016800
:102CB000CA6842F00102CA6000681149884214D013
:102CC000B0F1804F11D00F4988420ED00E49884292
:102CD0000BD00E49884208D00D49884205D00D49D5
:102CE000884202D00C49884204D1816801F0070172
:102CF000062903D0016841F00101016000207047FE
:102D0000000001400004004000080040000C0040AA
:102D100000040140004001400018004070B5044626
:102D200090F83C000025012817D0012684F83C606B
:102D3000022084F83D002068826822F0770222F4A5
:102D40007F4282600868502838D00DDC20284FD0A0
:102D500005DC90B3102811D14AE0022070BD302864
:102D600046D040280AD13BE060282FD070280DD0F3
:102D7000B0F5805F03D0B0F5005F12D0012584F874
:102D80003D60002084F83C00284670BDCB68D1E946
:102D90000121206802F039FA2068816841F077014A
:102DA00009E0CB68D1E90121206802F02EFA206801
:102DB000816841F480418160E1E719E0CA684968AF
:102DC000206802F0F7FA5021206806E0CA684968D6
:102DD000206802F000FB6021206802F020FACEE7B4
:102DE000CA684968206802F0E5FA40212068F4E7E3
:102DF000226801461046F0E72DE9F0410D46040037
:102E000003D094F83D0018B108E00120BDE8F0813E
:102E1000002084F83C00204600F040F8022084F8AE
:102E20003D002068816844F2070291438160211DC2
:102E3000206802F075F9226890689169166A2B681B
:102E4000AF69034340F20330814341EA0721A86898
:102E5000EF6908434FF6FC418843E96840EA0720E0
:102E6000014328692F6A000140EA07300843696876
:102E70006D6926F0AA0646EA051529439360226883
:102E8000906154F8460B0162012004F81F09E075B7
:102E90002076E0762077A0750020B7E7F0B587B000
:102EA000044614216846FDF735FA43492768002592
:102EB000414810390224414A414EB7F1804F16D0A3
:102EC000DFF800C10323674540D1026842F00202E7
:102ED0000260006800F002000590086840F00200FF
:102EE0000860086800F002000590302043E00368A5
:102EF00043F001030360006800F0010005900868DA
:102F000040F001000860086800F0010005900868C2
:102F100040F0020008600868012700F002000590F8
:102F20004FF400408DE83100CDE903576946104663
:102F3000FFF732F908208DE83100CDE903576946E3
:102F4000304600BFFFF728F907B0F0BDDFF878C0C2
:102F5000674517D1026842F004020260006800F081
:102F600004000590086840F002000860086800F05E
:102F700002000590C0208DE83100CDE90334694698
:102F80003046DFE7114EB742DED1066846F008064C
:102F90000660006800F008000590086840F0010035
:102FA000086008688DE8380000F00100CDE90440B1
:102FB000694603931046C5E74038024000000240CE
:102FC000000402400004004000080040000C0040E3
:102FD00070B590F83E60044690F83F5090F842304B
:102FE00090F84320022021B104290ED0012E1BD1DC
:102FF00014E0012E18D1012B16D184F83E0084F87C
:10300000420001220021206820E0012D0CD1012A7C
:103010000AD184F83F0084F8430014E0012D03D165
:10302000012B01D1012A01D0012070BD84F83E009E
:1030300084F83F0084F8420084F843000122002114
:10304000206802F0D5F801220421206802F0D0F8AF
:103050002068016841F001010160002070BD7047E7
:103060002DE9F04104460068C66805694FF0000785
:10307000A90713D5B10711D5F91E016101202077E9
:10308000206880698007204602D0FFF7E8FF04E04F
:1030900000F0E0F8204600F072F92777680716D5AF
:1030A000700714D521686FF00400086102202077B2
:1030B0002068806910F4407F204602D0FFF7CFFFE0
:1030C00004E000F0C7F8204600F059F927772807F8
:1030D00015D5300713D521686FF00800086104206A
:1030E00020772068C0698007204602D0FFF7B7FF2D
:1030F00004E000F0AFF8204600F041F92777E80639
:1031000016D5F00614D521686FF01000086108206C
:1031100020772068C06910F4407F204602D0FFF776
:103120009EFF04E000F096F8204600F028F927778B
:10313000E80708D0F00706D021686FF001000861A9
:10314000204600F081F9280608D5300606D521680A
:103150006FF0800008612046FFF7C4FC680608D5C0
:10316000700606D521686FF040000861204600F027
:1031700075F9A8060AD5B00608D521686FF02000B9
:1031800008612046BDE8F041FFF7ADBCBDE8F08125
:1031900070B586B0044614216846FDF7BBF8264E8C
:1031A000256800232549022403222548B54210D171
:1031B0000D6845F010050D600968029301F01001DB
:1031C00005914FF4D441CDE900140121CDE903214B
:1031D0000CE01C4EB5420ED10D6845F010050D6097
:1031E000096801F01001059160211EE06946FEF7B3
:1031F000D3FF06B070BD144E1448B54209D10D6816
:1032000045F002050D60096801F002010591811584
:103210000BE00F4EB542ECD10D6845F002050D6094
:10322000096801F0020105917115CDE90232CDE97D
:1032300000140492DAE70000000001403038024038
:1032400000100240004001400044014000040240E0
:1032500000480140704770B5044690F83C000026D5
:103260000D4601280FD0012084F83C006AB1042AE1
:103270001DD0082A2FD00C2A3FD00126002084F828
:103280003C00304670BD022070BD206801F0D0FFC8
:103290002068816941F0080181612068816921F01D
:1032A00004018161206881692A69114311E0206865
:1032B00001F0EEFF2068816941F4006181612068BE
:1032C000816921F480618161206881692A6941EA0C
:1032D00002218161D2E7206802F010F82068C169FC
:1032E00041F00801C1612068C16921F00401C16198
:1032F0002068C1692A69114311E0206802F032F8A0
:103300002068C16941F40061C1612068C16921F48C
:103310008061C1612068C1692A6941EA0221C161F5
:10332000ACE710B5040003D094F83D0010B107E0FD
:10333000012010BD002084F83C00204600F01EF85B
:10334000022084F83D00211D206801F0E9FE0120E3
:1033500084F8460084F83E0084F83F0084F840007A
:1033600084F8410084F8420084F8430084F8440063
:1033700084F8450084F83D00002010BD7047704778
:1033800010B50446022249B104290ED0082913D0F1
:1033900094F84100012816D0012010BD94F83E0099
:1033A0000128F9D184F83E200FE094F83F0001286D
:1033B000F2D184F83F2008E094F840000128EBD1D6
:1033C00084F8402001E084F841200122206801F0C7
:1033D0000FFF16492068164A884201D0904203D157
:1033E000436C43F4004343642068884213D0B0F137
:1033F000804F10D00F4988420DD00F4988420AD023
:103400000E49884207D0904205D00D49884202D02B
:103410000C49884204D1816801F00701062903D0D4
:10342000016841F001010160002010BD0000014071
:10343000000401400004004000080040000C00406F
:10344000004001400018004000680349884201D153
:10345000FEF7AEBF7047000000200040704738B54F
:10346000044690F84200202801D0022038BD51B116
:103470004AB10120206300206063204602F084F9F5
:10348000216B012901D0012038BD21680A684968F3
:10349000009121680C3151E8002F42F0100241E800
:1034A0000023002BF5D138BD7CB500251F490095C0
:1034B000884220D114221E491C48FFF7D0FF1D4826
:1034C0000068016821F00801016019481A4C007871
:1034D0007C2811D040280ED16946206D04F055FF9C
:1034E0000098002807D015494FF080500860BFF3BE
:1034F0004F8FBFF36F8F7CBDE06998B1A06A01AABE
:10350000401CA0620EA10A48FCF716FF0E489DED74
:10351000010A80ED070AA06A0A28ECDB012020627C
:10352000A5627CBD09A002F0DFFC7CBD2008002064
:10353000F4040020880900200000002004ED00E0D1
:103540007C25667C0000000054020020756E6765D3
:10355000742075706C696461727461736B0D0A001C
:1035600010B5040015D0242084F841002068C168FB
:1035700021F40051C160204600F080F90020606411
:1035800084F8410084F8420044F8300F60602074F1
:1035900010BD012010BD7047F8B5016804460868E9
:1035A000CA684B6910F00F0F4FF0000559D003F0B7
:1035B000010602F49077374365D0C10705D0D105E5
:1035C00003D5616C41F001016164410705D5D9075C
:1035D00003D0616C41F002016164810705D5D90710
:1035E00003D0616C41F004016164010707D502F06A
:1035F0002001314303D0616C41F008016164616CCA
:1036000000293AD0800604D5900602D5204601F064
:10361000D4FF20684069616CC0F38010090700D4B2
:1036200060B3204601F094FF20684069400621D530
:103630002068143050E8001F21F0400140E80012DB
:10364000002AF5D1E06BA8B172490165E06BFEF785
:1036500027FB002811D0E06B016D01B0BDE8F04000
:10366000084783060FD593060DD52046BDE8F840E0
:1036700001F0A3BF2046FFF78EFFF8BD2046FFF7FD
:103680008AFF6564F8BD266B2023012E7ED1C60615
:103690007CD5D6067AD508684868009048694FF00E
:1036A000020640064DD5E26B106840684FF4807703
:1036B0000004000C3AD0A18D814237D9E085D06951
:1036C000B8422DD020680C3050E8001F21F48071E2
:1036D00040E80012002AF5D12068143050E8001F9D
:1036E00021F0010140E80012002AF5D120681430D1
:1036F00050E8001F21F0400140E80012002AF5D1F7
:1037000084F84230256320680C3050E8001F21F017
:10371000100140E80012002AF5D1E06BFEF777FABD
:103720006663A08DE18D401A81B206E0A18D8142D1
:10373000A8D1D069B842A5D166632046FFF7B4FE90
:10374000F8BDA08DE18D401A81B2E08D0028F7D040
:103750000029F5D020680C3050E8002F22F4907238
:1037600040E80027002FF5D12068143050E8002FE2
:1037700022F0010240E80027002FF5D184F8423002
:10378000256320680C3050E8002F00E006E022F0AE
:10379000100240E80023002BF3D1CDE705062BD51E
:1037A000150629D594F841002128C9D1A068B0F5A3
:1037B000805F01D12069B0B1206A411C216221687B
:1037C00000784860E08C401E0004000CE084B7D113
:1037D0002068C16821F08001C1602068C16841F0A3
:1037E0004001C160F8BD206A0088C0F3080048604D
:1037F000206A801C2062E5E74006F3D55006F1D52B
:10380000CA68204622F04002CA6084F8413000F0C5
:10381000E1FBF8BD0954000870B5040004D094F829
:103820004100002510B106E0012070BD84F8405031
:10383000204600F085F8242084F841002068C16803
:1038400021F40051C160204601F018FF2068016991
:1038500021F4904101612068416921F02A01416110
:103860002068C16841F40051C1606564202084F87B
:10387000410084F842006563002070BD10B5044625
:103880000068274A274990420AD1086820F400209E
:1038900008604FF440612448FEF7CAFB342039E049
:1038A000224B234A984212D11E48001D016821F084
:1038B000100101604FF4C0611046FEF7B9FBA06B28
:1038C000FEF700FAE06BFEF7FDF9252022E0194B28
:1038D00098420CD1086820F4003008600C21104692
:1038E000FEF7A6FBA06BFEF7EDF9262012E0124AC8
:1038F000904213D1086820F4802008604FF4407192
:103900000E48FEF795FBE06BFEF7DCF9A06BFEF7C7
:10391000D9F92720BDE81040FEF7D4BD10BD000046
:10392000004C0040403802400008024000100140B6
:10393000000002400044004000480040000C0240EB
:103940002DE9F04F87B0044614216846FCF7E2FCED
:103950009B489A4ED4F800C0994B1038022103229C
:103960000025B44520D11C6844F400241C601B6869
:1039700003F400230593036843F004030360006825
:1039800000F00400059090028DE823000820CDE9A6
:10399000032069468B48FEF7FFFB002205213420F7
:1039A000FEF7AEFD342062E0DFF81C824FF00067C6
:1039B000DFF818B27E144FF007094FF0400AC445F3
:1039C0005AD17F4B1B1DD3F800C04CF0100CC3F82C
:1039D00000C01B6803F010030593036843F0010364
:1039E0000360006800F0010005904FF4C0608DE8AE
:1039F0002300CDE9032969465846FEF7CDFBDFF8E1
:103A0000D49173494846B846C0E90356C9F81450E2
:103A1000C9F81850C9F81C50C9F8205089E80205A7
:103A2000C9F82450FEF750FA08B1FEF7EEF8694FD6
:103A30006748C4F8389060377838C9F8384038603B
:103A4000C7E90185C7E903567D61BD61FD613D623E
:103A500038467D62FEF738FA08B1FEF7D6F8E7631C
:103A6000002205212520BC63FEF74AFD2520FEF734
:103A70003AFD07B0BDE8F08FDFF85C81C44541D165
:103A8000D3F800C04CF4003CC3F800C01B6803F43A
:103A900000330593036843F00103036000680DF1F0
:103AA000080800F0010005900C20CDE9000101207C
:103AB00088E8050269465846FEF76EFBDFF8148178
:103AC000464908F1C0084046C0E90356C8F81450FA
:103AD000C8F81850C8F81C50C8F8205088E882046C
:103AE000C8F82450FEF7F0F908B1FEF78EF8C4F8D4
:103AF0003880002205212620C8F83840FEF700FD56
:103B00002620B4E7DFF8D880C445B2D1D3F800C08E
:103B10004CF4802CC3F800C01B6803F48023059389
:103B2000036843F008030360006800F00800059094
:103B30004FF440708DE82300CDE9032969462948F8
:103B4000FEF72AFB2549DFF8A09078394846C9F8E6
:103B50000010C0E90175C0E90356C9F81450C9F84E
:103B60001850C9F81C50C9F82050B846C9F824505C
:103B7000FEF7AAF908B1FEF748F81B4FC4F83C90CD
:103B80006037C9F83840C7E903567D61BD61134805
:103B9000FD613D6248387D6287E801053846FEF7E1
:103BA00093F908B1FEF731F8A76300220521272019
:103BB000BC63FEF7A5FC272059E70000004C00403D
:103BC000403802400008024000100140000002405E
:103BD000B86402406808002000440040A060024031
:103BE00000480040000C02408809002090F8423054
:103BF000202B01D00220704721B11AB100230363AA
:103C000001F012BE012070472DE9F041A349A44CF8
:103C1000884207D1A07A01F067FF012204F10A016E
:103C20009E4835E19F49884270D19D48A5780B3068
:103C3000691C00780F220026CBB2042D05D2AA28D9
:103C400001D0A67066E0A37064E02F1F062F5ED23D
:103C50009349C9785ED2DFE807F00306124649515E
:103C600088B1A670E67002280FD00D2816D00F2854
:103C70001CD0102821D0142827D0A670E67060B37D
:103C8000A670E67030E0052336E002216171A1786C
:103C9000491CA170E178891CE1703EE00D20607143
:103CA000A078401CA070E0780D30CFE06271A07861
:103CB000401CA070E0780F30C8E010206071A07840
:103CC000401CA070E0781030C0E014206071A07833
:103CD000401CA070E0781430B8E0A178491CA170B5
:103CE000E178E17016E038B1A670E670A071A178B5
:103CF000491CA170E17807E0A370F2E7A37903EB18
:103D00000023A3710A23A3700144EAE7C4E00A2D4B
:103D100000D1E6716179022970D1E17900296DD174
:103D2000A17809296AD9604DBE2975D2A1F10A038B
:103D300093FBF2F702FB1732D3B2594A23720F2BCF
:103D4000177907EB870267D2DFE803F0080B12163A
:103D50001D21272E34383C42494F590025F82200B6
:103D600046E035F8223003EB002325F822303FE00F
:103D700005EB820250803BE005EB8202538803EBA7
:103D80000023538034E005EB8202506030E005EB05
:103D90008202536803EB002304E005EB82025368C0
:103DA00003EB0043536023E005EB8202536803EB0F
:103DB0000063F7E705EB8202107219E005EB82025F
:103DC000D06015E005EB8202D36803EB002304E02A
:103DD00005EB8202D36803EB0043D36008E005EBF8
:103DE0008202D36803EB0063F7E705EB82021082DF
:103DF000E278491C0244E270A1700DE044E005EB5A
:103E00008202491C138A7F1C03EB00231382E27891
:103E10000244E270A1702771C9B2BF290CD0204AB8
:103E2000C029926B0BD0C12912D0C22915D0C32949
:103E300018D0BE2926D027E0C021A06303E002EB02
:103E40000021A163C121A170E1780844E0701BE06A
:103E500002EB0041A163C221F5E702EB0061A1631F
:103E6000C321F0E7E178884204D102F005FFE08940
:103E7000401CE08128882082E670A6700120E07155
:103E8000267101E0BF20A0700549012205480B31D1
:103E9000BDE8F041FFF7AABEBDE8F081D8070020D9
:103EA00000000020480700206401002070472DE931
:103EB000F843044690F84100984616460D462028DF
:103EC00002D00220BDE8F88385B17EB10020606495
:103ED000212084F84100FEF765FAA6848146E68435
:103EE000A0682027B0F5805F02D003E00120E9E759
:103EF000206910B12E4600250EE000260CE080213E
:103F0000204601F0ACFCA8B9C6B116F8010B216837
:103F10004860E08C401EE084E08C4B464FF000028D
:103F2000CDF800800028EAD14FF04001204601F092
:103F300096FC40B184F841700320C3E735F8020BCA
:103F4000C0F30800E3E784F841700020BAE70000FE
:103F500070B5044690F84100202801D0022070BDC1
:103F600001B3FAB12162A284E284002060642123BB
:103F700084F84130A56B144BEB63A56B134B2B649A
:103F8000A56B134BEB64A36B186520681346A56BF8
:103F9000021D2846FEF702F830B110206064202090
:103FA00084F84100012070BD21686FF04000086076
:103FB0002068143050E8001F41F0800140E80012F2
:103FC000002AF5D1002070BD0555000847550008AE
:103FD0001754000870477047FEE7000010B504460C
:103FE0001148FFF7BDFA1048FFF748FCD4B10E485E
:103FF0004FF461310C2241600C4901600021816065
:10400000C160C0E904128161C161FFF705FC08B11C
:10401000FDF7FBFD0448FFF793FC01220449024829
:10402000FFF7E4FD002010BD48070020004C0040D1
:104030000B00002010B504461048FFF791FA0F4816
:10404000FFF71CFC0D490E480C22C1E900040020BA
:104050008860C860C1E904028861C8610846FFF74A
:10406000DBFB08B1FDF7D1FD0448FFF769FC012235
:1040700004490248FFF7BAFD002010BDD807002010
:10408000004400400A0000201D4808B5016841F4C2
:1040900080010160016801F480010091016841F430
:1040A000001101600068002200F40010009005215A
:1040B0000C20FEF725FA0C20FEF715FA0022052148
:1040C0000E20FEF71DFA0E20FEF70DFA0022052144
:1040D0001120FEF715FA1120FEF705FA002205213E
:1040E0003A20FEF70DFA3A20FEF7FDF900220521ED
:1040F0004620FEF705FABDE808404620FEF7F3B972
:104100003038024010B5154A0021012002F0C4FEEB
:10411000134C124A00212065B43A124802F008FFFD
:104120000E4AE063903A00210F4802F001FF0B4A6B
:1041300020646C3A00210D4802F0FAFE074A6064E0
:10414000483A00210A4802F0F3FE044AA064243AE7
:104150000021084802F0ECFEE06410BD9C8D0008D0
:104160000000002039500008E1470008514E0008C7
:10417000ED490008911B00082DE9F04786B0142195
:104180006846FCF7C7F835480024016841F0100183
:104190000160016801F010010591016841F08001A2
:1041A0000160016801F080010591016841F00101A1
:1041B0000160016801F001010591016841F002010F
:1041C0000160016801F002010591016841F00801F8
:1041D0000160016801F008010591016841F00401E6
:1041E00001600068DFF8789000F004004FF440654B
:1041F0000590012229464846FEF7CEF8DFF864A074
:104200004FF48077002239465046FEF7C5F84FF448
:104210008058012241465046FEF7BEF81120CDE9F4
:10422000005001250326CDE9025669464846FDF7B0
:10423000B3FF0097CDE90154694650460394FDF75A
:10424000ABFFCDF800800396CDE901546946504696
:10425000FDF7A2FF06B0BDE8F0870000303802404D
:10426000000402400000024010B588B01C216846DE
:10427000FCF750F815481449002401600321C0E9F7
:10428000011440F2E731C0E903148461FEF79EFC9B
:1042900008B1FDF7BAFC0D48FFF743F808B1FDF788
:1042A000B4FC6020CDE9000402940022694607486E
:1042B0000494FEF7D0FF08B1FDF7A7FC0348FEF712
:1042C00067FF08B010BD000000440140B8060020A0
:1042D00010B588B01C216846FCF71CF81548144935
:1042E000002401600321C0E9011440F2E731C0E974
:1042F00003148461FEF76AFC08B1FDF786FC0D48E3
:10430000FFF70FF808B1FDF780FC6020CDE900044D
:1043100002940022694607480494FEF79CFF08B106
:10432000FDF773FC0348FEF733FF08B010BD000033
:10433000004801400007002010B596B000240F94FB
:1043400010941194129413941C2168461494FBF752
:10435000E1FF202107A8FBF7DDFF34483249016067
:104360000321C0E9011440F2E731C0E903144461BC
:104370008461FEF72BFC08B1FDF747FC4FF4805039
:104380000F900FA92948FEF7C9FC08B1FDF73DFCC5
:104390002648FEF7C6FF08B1FDF737FC139413A9B2
:1043A00022481494FEF7CAFB08B1FDF72EFC6020EA
:1043B000CDE9000402940394049405940022694614
:1043C0001A480694FEF747FF08B1FDF71EFC0422C9
:1043D00069461648FEF73FFF08B1FDF716FC0822B4
:1043E00069461248FEF737FF08B1FDF70EFC0C22B4
:1043F00069460E48FEF72FFF08B1FDF706FC07944B
:10440000089409944FF400500A94CDE90B4007A991
:1044100006480E94FEF768FB08B1FDF7F6FB03486B
:10442000FEF7B6FE16B010BD0000014008050020E2
:1044300010B58CB024216846FBF76CFF00241648A9
:1044400009944FF080410A94C0E9001442F21071BF
:10445000C0E90241046184610320009002200190C0
:104460000120CDE902040494CDE905400794694692
:1044700009480894FEF7C0FC08B1FDF7C6FB099493
:1044800009A905480A94FEF759FB002801D0FDF759
:10449000BCFB0CB010BD00005005002010B58CB066
:1044A00024216846FBF736FF002416480994144976
:1044B0000A94C0E9001442F21071C0E9024104619B
:1044C000846103200090022001900120CDE90204C4
:1044D0000494CDE90540079469460A480894FEF71C
:1044E0008BFC08B1FDF791FB099409A905480A94D2
:1044F000FEF724FB002801D0FDF787FB0CB010BDB0
:10450000000400409805002010B58CB024216846B6
:10451000FBF700FF00241648099414490A94C0E9E7
:10452000001442F21071C0E9024104618461032069
:10453000CDE900040120CDE902040494CDE9054051
:10454000079469460A480894FEF756FC08B1FDF73F
:104550005CFB099409A906480A94FEF7EFFA0028C3
:1045600001D0FDF752FB0CB010BD00000008004068
:10457000E005002010B58CB024216846FBF7CAFE88
:1045800000241648099414490A94C0E9001442F220
:104590001071C0E90241046184610320CDE9000487
:1045A0000120CDE902040494CDE905400794694651
:1045B0000A480894FEF720FC08B1FDF726FB099491
:1045C00009A906480A94FEF7B9FA002801D0FDF7B8
:1045D0001CFB0CB010BD0000000C004028060020A1
:1045E00010B58CB000240794089409941C216846E7
:1045F0000A94FBF78FFE1E481C4901600321C0E9A5
:10460000011440F2E731C0E903148461FEF7DEFAD9
:1046100008B1FDF7FAFA4FF48050079007A9144843
:10462000FEF77CFB08B1FDF7F0FA1148FEF779FEC2
:1046300008B1FDF7EAFA6020CDE9000402940022F7
:1046400069460B480494FEF706FE08B1FDF7DDFA53
:10465000042269460648FEF7FEFD08B1FDF7D5FACB
:104660000348FEF795FD0CB010BD0000004001406E
:10467000700600200C4810B50A4901604FF4613102
:104680004160002181600C22C160C0E90412816197
:10469000C161FFF7C1F8002803D0BDE81040FDF765
:1046A000B4BA10BD004C0040480700200C4810B5BB
:1046B0000A4901604FF4E1314160002181600C2220
:1046C000C160C0E904128161C161FFF7A5F800284B
:1046D00003D0BDE81040FDF798BA10BD00100140AE
:1046E000900700200C4810B50A4901604FF4E131F1
:1046F0004160002181600C22C160C0E90412816127
:10470000C161FFF789F8002803D0BDE81040FDF72C
:104710007CBA10BD00440040D80700200C4810B5FA
:104720000A4901604FF4E1314160002181600C22AF
:10473000C160C0E904128161C161FFF76DF8002812
:1047400003D0BDE81040FDF760BA10BD004800403E
:1047500020080020FEE7000010B53C211848FEF7B5
:1047600037FC3C211748FEF733FC3C211648FEF786
:104770002FFC3C211548FEF72BFC00211448FEF7C6
:10478000FFFD00211348FEF7FBFD00211248FEF754
:10479000F7FD04211048FEF7F3FD00210F48FEF756
:1047A000EFFD04210D48FEF7EBFD08210B48FEF755
:1047B000E7FDBDE810400C210848FEF7E1BD000010
:1047C0005005002098050020E00500202806002064
:1047D000B806002000070020700600200805002011
:1047E000574C594805262DED028B82B09FED550A96
:1047F000267380ED000A4FF47A759FED541ADFEDB1
:10480000540AB2EE0C0A303000F010FB9FED518AD2
:104810004D48B1EE000AB0EE481AF0EE480AD0302A
:1048200000F004FBB0EE481ADFED4B0AB3EE020ACB
:104830004A4800F0FBFAB7EE081ADFED490A47488C
:10484000B0EE080AA03000F0FFFA02E0284603F0BC
:10485000A5F9606A0028F9D104F04EF8002500900F
:10486000E06A401CE062322806DB206B20B13DA0EC
:1048700001F03AFBE562256333486838FCF7AAFE8D
:10488000364A3148A032A2F51E71FCF7B7FF217BF2
:10489000012906D002290FD0032911D004291ED0E6
:1048A00036E02E4A2848A03AA2F59C71FCF7D8FDC4
:1048B0006061606928BB2BE0B0B3012060611BE040
:1048C000206A012830D1254A1F48A2F5EC71FCF777
:1048D00027FD60616069D8B1E561256211E01F4A7A
:1048E0001948A032A2F51E71FCF764FF606160698F
:1048F00070B10020FFF772FB1349A1F16800FCF7CB
:10490000FFFC2673002302221946E06C03F076FFB9
:10491000207B052808D10C48683800F015FB0A49AF
:104920000948143900F0F0FA074A07483032A2F17A
:10493000980100F0E0FF1921684603F055F98FE770
:104940000000002000002042BC020020CDCC4C3EE4
:104950009A99D93F00000000CDCCCC3D2C0400201A
:104960000AD7A33C52454144590D0A002DE9F041B4
:1049700006462DED048B00259FED168A164C174F29
:10498000DFED178A9FED179A18E000BFFCF78EFF46
:10499000207898B1B7F97E0000EE100A2078B8EEC2
:1049A000C00A20EE280A20EE090A400706D5207822
:1049B00020F00400207030EE088A6D1CB542E5DD61
:1049C00000EE105AF8EEC00A88EE200ABDEC048B07
:1049D000BDE8F08100000000000000206C540020C1
:1049E0000000003800003443FEE7000086B0924E1D
:1049F000924C4FF0FF3B4FF000094FF0010AA6F533
:104A000013755946206D03F0ABFD0128F9D18A4892
:104A1000FBF78BFC0146062801D289A008E130781B
:104A2000402802D001468EA002E1701810F8010C57
:104A3000232802D0014692A0FAE00022104604E0AA
:104A4000335C7C2B00D1521C401C8842F8D3032AD3
:104A500002DA114692A0EBE09FED9A0A03A88DEDD1
:104A6000020A8DED030A009002AB04AA96A17248D7
:104A7000FBF762FC0146032805DA97A001F034FA3F
:104A80006D49A1A0D4E0207B052803D0A2A001F0AD
:104A90002BFAB6E7C4F81490C4F81890C4F81C9028
:104AA000C4F820900499062971D2DFE801F0C00310
:104AB0001F4475A30398FBF7A3FF07468846029897
:104AC000FBF79EFF41EC100BCDE9007853EC102B67
:104AD0009BA001F009FA9DED020A85ED010A9DED0A
:104AE000030A85ED020A84F80C901AE00398FBF79C
:104AF00087FF074688460298FBF782FF41EC100BC0
:104B0000CDE9007853EC102B94A001F0EDF99DED68
:104B1000020A85ED000A9DED030A85ED030A84F87B
:104B20000CA0964800F010FA9449543101F1140099
:104B300000F04EFA65E70398FBF762FF07468846E8
:104B40000298FBF75DFF41EC100BCDE9007853ECC8
:104B5000102B8BA001F0C8F99DED030A9149F0EEEE
:104B6000C00A10EE900A884208DCDDED020A02203D
:104B7000C5ED000A85ED040A2073D2E710EE100A95
:104B8000FBF73EFF41EC100B53EC102B00E04EE026
:104B900085A001F0A9F934E70398FBF731FF074638
:104BA00088460298FBF72CFF41EC100BCDE900780A
:104BB00053EC102B86A001F097F99DED020A032714
:104BC00085ED030A9DED030A6C4885ED000A277305
:104BD00000F0BAF96949543101F1140000F0F8F914
:104BE0002773C4F818A000231A461946E06C03F096
:104BF00005FE06E70298FBF703FF41EC100B7DA0D2
:104C000053EC102B01F070F99DED020A042085EDA4
:104C1000030A2073594800F097F95849543101F1BB
:104C2000140000F0D5F90120FFF7D8F9E9E679A0E2
:104C300001F05AF9E5E60000F4040020000000202D
:104C40004552523A204461746120746F6F2073683A
:104C50006F727421204C656E3D25640D0A000000C2
:104C60004552523A204D697373696E6720686561D9
:104C70006465722120476F742025630D0A000000CF
:104C80004552523A204D697373696E6720666F6FA3
:104C90007465722120476F742025630D0A0000009F
:104CA0004552523A204D697373696E67207365707F
:104CB000617261746F72732120436F756E743D254C
:104CC000640D0A0000000000407C25647C25667CA1
:104CD00025667C23000000004552523A2050617244
:104CE0007365206661696C65642120476F742025B7
:104CF00064206669656C64732C20657870656374E4
:104D0000656420330D0A000052617720646174618C
:104D10003A2025730D0A00004552523A205461731F
:104D20006B20627573792C207761697420666F72CD
:104D300020636F6D706C6574696F6E210D0A0000E1
:104D40005B5441534B315D3A20763D252E32662C23
:104D500020773D252E32660D0A0000005B5441533A
:104D60004B325D3A206D61785F763D252E32662CA0
:104D7000206469733D252E32660D0A00540200201E
:104D80005B5441534B335D3A206D61785F763D252E
:104D90002E32662C20736974613D252E32660D0A11
:104DA00000000000000034435441534B335D455232
:104DB000523A20416E676C65206F7574206F6620D3
:104DC00072616E67652120252E3166C2B00A00002F
:104DD0005B5441534B345D3A2043616C69627261AC
:104DE0004469733D252E32662076616C3A252E3259
:104DF000660D0A005B5441534B355D3A2043616CAC
:104E000069627261416E676C653D252E32660D0ADE
:104E1000000000004552523A204E4F20544849535A
:104E2000205441534B212025640D0A0000F11C0140
:104E300081EC030A283181EC030A2831943081EC9B
:104E4000030A80EC030A70471C3080EC030A7047A9
:104E500000254FF41650FFF7EDF85021002000F028
:104E60008BFD214800F0C0FE204800F033FE2048B2
:104E700000F078FDFCF7FCF90A20FFF777FD1D4EE6
:104E80001D4C86ED060A00BFFCF710FD2078F8B136
:104E90001A48DFED1B0AB0F97E0000EE100A2078F8
:104EA000B8EEC00A20EE200ADFED160A20EE200A36
:104EB00040070DD5207820F00400207086ED050A0B
:104EC000D6ED060A30EE600A01F08CFF86ED040A8A
:104ED0006D1C0A2D04DB606B10B100206062606302
:104EE000142001F09DFFCFE7BD4F0008714F00086F
:104EF000071C000854020020000000206C54002011
:104F000000000038000034439FED0D0ADFED0D0A6C
:104F100080ED020A80ED030A80ED040A80ED050AA7
:104F200080ED0B0A80ED0A0AC0ED000A81ED030A4C
:104F300081ED020A81ED010A81ED040A704700004B
:104F400000000000000020429FED080A002180EDD3
:104F5000090A80ED0C0A80ED0F0A80ED120A80ED3F
:104F6000000A80ED070A016270470000000000009F
:104F700010B50023104A15E0362809D039280BD087
:104F80003C2812D014783F2813D044F0800406E067
:104F9000147844F0010402E0147844F00204147020
:104FA000401C5B1C8B42E7D310BD147844F008040E
:104FB000F5E744F00404F2E7000000208AB201465D
:104FC0004FF0FF330148FEF772BF0000D807002002
:104FD00091ED020AF3EE0E0A20EE200AD1ED010A4D
:104FE00070EE800AC0ED030AD1ED010A70EE800A6E
:104FF000C0ED020AD1ED010A70EEC00AC0ED040A4C
:10500000D1ED010A30EEC00A80ED050A91ED030AE8
:1050100080ED0A0A91ED040A80ED0B0A91ED000A79
:10502000B5EEC00AF1EE10FA01D19FED020A80ED53
:10503000000A704700002042054D4FF4805421467D
:105040002846FDF7A1F9502001F0EAFEF7E700003D
:105050000000024010B54FF0E020006903F03EFC74
:10506000012803D0BDE8104002F094BF10BD00003D
:1050700030B593B030216846FBF74CF914210CA8E9
:10508000FBF748F91D480025016841F08051016097
:10509000006800F0805011901948016841F4804187
:1050A00001600068022400F480401190012000900B
:1050B000000401908001CDE9064008AA0420A8213F
:1050C00082E813000B906846FDF756FB08B172B6F4
:1050D000FEE70CA90F2081E831004FF4A0500F909B
:1050E0004FF48050109005210CA8FDF73BFA0028E2
:1050F00001D072B6FEE713B030BD00004038024068
:10510000007000400248016841F47001016070477E
:1051100088ED00E00148FDF7A3BF0000480A002029
:10512000F0B50268274B284D284E294F294C4FF0E7
:10513000804C984209D0604507D0A84205D0B042C3
:1051400003D0B84201D0A04204D122F0700E4A68C8
:1051500042EA0E0298421BD0604519D0A84217D0EF
:10516000B04215D0B84213D0A04211D01A4DA84277
:105170000ED01A4DA8420BD0194DA84208D0194D97
:10518000A84205D0184DA84202D0184DA84203D11C
:1051900022F44075CA682A434D6922F080022A43EE
:1051A0008D68C5620D688562984201D0A04201D128
:1051B00009690163016841F0040101600121416155
:1051C0000260F0BD00000140000400400008004003
:1051D000000C004000040140004001400044014038
:1051E0000048014000180040001C00400020004022
:1051F00010B501F01F030121046A99408C43046239
:10520000016A9A401143016210BD10B5846842EAF8
:10521000032224F47F440A432243826010BD826843
:1052200022F070020A4342F00701816070470000DB
:10523000F0B5036A026A22F00102026242688469E0
:10524000124E24F073050C682C4323F002058B6882
:105250002B430D4DA84201D0B04205D123F00807E1
:10526000CB683B4323F00403A84201D0B04205D1F0
:105270004D6922F4407215438A692A434260846171
:10528000496841630362F0BD000001400004014031
:10529000F0B5026A036A23F010030362436884696D
:1052A0000D6824F4E64444EA05248D6822F02002C7
:1052B00042EA05120F4D104EA84201D0B04206D16D
:1052C000CF6822F0800242EA071222F04002A84290
:1052D00001D0B04207D14D6923F4406343EA85030E
:1052E0008D6943EA85034360846149688163026292
:1052F000F0BD00000000014000040140F0B5026A6A
:10530000036A23F4807303624368C46922F4007261
:1053100024F073050C68124E2C438D6842EA052276
:105320000E4DA84201D0B04206D1CF6822F40062EF
:1053300042EA072222F48062A84201D0B04207D19B
:105340004D6923F4405343EA05138D6943EA05137D
:105350004360C4614968C1630262F0BD000001405E
:105360000004014030B5046A026A22F480520262ED
:105370004268C3690D6823F4E64343EA05238D6858
:1053800024F4005444EA0534084DA84202D0084DE4
:10539000A84204D14D6922F4804242EA851242605B
:1053A000C36149680164046230BD0000000001402F
:1053B0000004014010B5036A046A24F00104046289
:1053C000846924F0F00444EA021423F00A020A4338
:1053D0008461026210BD10B5036A046A24F01004EF
:1053E0000462846923F0A00324F4704444EA023286
:1053F00043EA01118261016210BD00000148FEF71D
:10540000CBB800004807002010B5806B0021C18593
:10541000FEF7C1F810BD70B5846B2068406994F840
:105420004110C0F3C0100025212904D118B1E58432
:10543000204600F0B4F82068406994F84210C0F3A8
:105440008010222904D118B1E585204600F080F8AB
:10545000606C40F0100060642046FEF79CF870BD60
:1054600010B50146806B096809684FF00002C90554
:105470002ED4C28501680C3151E8003F23F48073BB
:1054800041E80034002CF5D10168143151E8003FA7
:1054900023F0010341E80034002CF5D101681431F8
:1054A00051E8003F23F0400341E80034002CF5D1DF
:1054B000202180F84210016B012909D101680C31CB
:1054C00051E8003F23F0100341E80034002CF5D1EF
:1054D0004263016B012902D0FEF796FB10BD818D5E
:1054E000FDF7E2FF10BD10B5806B01214163016B38
:1054F000012902D0FEF7DAFC10BD818D4908FDF7C5
:10550000D3FF10BD10B50146806B09680968C90555
:1055100016D40021C1840168143151E8002F22F013
:10552000800241E80023002BF5D101680C3151E8DD
:10553000002F42F0400241E80023002BF5D110BDBE
:10554000FEF748FD10BD10B5806BFEF744FD10BDA1
:1055500001680C3151E8002F22F4907241E80023D9
:10556000002BF5D10168143151E8002F22F001021F
:1055700041E80023002BF5D1016B012909D1016815
:105580000C3151E8002F22F0100241E80023002BDB
:10559000F5D1202180F84210002101637047016895
:1055A0000C3151E8002F22F0C00241E80023002B0B
:1055B000F5D1202180F84110704708B590F84210CD
:1055C000222901D0022008BD82684FF480539A42FC
:1055D00001D1016921B1816A9A421BD04AB10AE026
:1055E0000268816A5268C2F308020A80816A891CD3
:1055F00008E0026972B10268526802F07F020A7024
:10560000816A491C8162C18D491E0904090CC1854A
:1056100003D01BE002685268F1E70168CA6822F013
:105620002002CA600168CA6822F48072CA600168F8
:105630004A6922F001024A61202180F842100021CB
:105640004163026B012A03D0FEF7DEFA002008BD99
:10565000016301680C3151E8002F22F0100241E88B
:105660000023002BF5D101680A68D20602D50A682A
:1056700049680091818DFDF717FFE7E770B5044693
:1056800000680169E26821F4405111430161216918
:10569000A068E26908436169114308432168CA6848
:1056A00049F20C639A430243CA6020684169A269C7
:1056B00021F440711143416131492068884202D090
:1056C0003049884202D1FDF717F801E0FDF704F8F0
:1056D000E2690023192164253226B2F5004F626881
:1056E00028D0A0FB0101930F9200FAF7C9FD0146F3
:1056F000B0FBF5F06FF01802504301EB800006EBB1
:105700000010B0FBF5F000F0F002B1FBF5F002EB99
:105710000012B1FBF5F06FF01803584301EB800065
:1057200006EB0010B0FBF5F000F00F00216810440C
:10573000886070BDA0FB010192185B41FAF7A0FDE3
:105740000146B0FBF5F00201B1FBF5F06FF0180374
:10575000584301EB800006EBC000B0FBF5F000F011
:10576000F80002EB4002B1FBF5F0584301EB80007A
:1057700006EBC000B0FBF5F000F00700D6E7000034
:10578000001001400014014038B581620446828552
:10579000002013466064222284F84220E56B1F4AF1
:1057A000EA63E56B1E4A2A64E56B1E4AEA64E26B13
:1057B00010650A462168E06B091DFCF7EFFB30B16C
:1057C00010206064202084F84200012038BD206849
:1057D000016840680090206948B120680C3050E8AA
:1057E000001F41F4807140E80012002AF5D12068C2
:1057F000143050E8001F41F0010140E80012002A77
:10580000F5D12068143050E8001F41F0400140E815
:105810000012002AF5D1002038BD000061540008B4
:10582000E75400081754000881628285C285002170
:105830004164222180F84210016921B10168CA68DF
:1058400042F48072CA6001684A6942F001024A610A
:105850000068C16841F02001C160002070472DE957
:10586000F843984617460D460446089E24E0701CEF
:1058700022D0FCF797FDA0EB0800B0421AD8CEB1B9
:105880002068C168490717D5802D15D0402D13D049
:105890000168C94309070FD40168002540680090DA
:1058A0002046FFF755FE0820606484F84050012030
:1058B000BDE8F8830320FBE72068006835EA0000B4
:1058C00004D00020B842D2D00020F1E70120F9E74F
:1058D0000148FDF761BE0000900700200148FDF778
:1058E0005BBE0000D80700200148FDF755BE000050
:1058F00020080020FEE770B516460C46054600F06D
:1059000090FCD4ED0B0A95ED060A304600F012FB30
:10591000B0EE404AD4ED0E0A95ED070A06F12800D4
:1059200000F008FBF0EE403AD4ED110A95ED080ABC
:1059300006F1500000F0FEFAB0EE403AD4ED140A41
:1059400095ED090A06F1780000F0F4FABDE8704020
:10595000F0EE401AB0EE431AF0EE630AB0EE440ADD
:1059600000F050BB18B103498861002070476FF008
:105970000500704700010020032802D96FF00500E0
:105980007047034A106211700020D0617047000018
:10599000000100202DE9FC5F0D46064628446FF00B
:1059A000050C90287CD2494C6FF004092046D4F8AD
:1059B000208042684FF0FF0A4FF0AA0B4FF0270EED
:1059C000F7B2C6F30721B8F1000F0FD04FF6FF7002
:1059D00000EA45032046B8F1010F007816D0B8F16F
:1059E000020F33D0B8F1030F6ED142E0042D6BD813
:1059F000F2B38DF800A08DF801B08DF802E08DF8BB
:105A000004108DF803700521684659E082B35B1DD0
:105A1000B3F5807F32D88DF8000003208DF80100A7
:105A2000280A8DF802108DF804008DF803708DF8A7
:105A300005500621684600F067FA010A8DF8061045
:105A40008DF8070008216846626839E0032D3BD8CD
:105A500023696BB18DF800A08DF801B08DF802E0DC
:105A60008DF804108DF8037005226946984728E0E8
:105A700017E0E768AFB1B3F5807F03D96FF003009B
:105A8000BDE8FC9F4006F1B2000E114AB84701285C
:105A900017D162692AB10E49002001F580730BE02D
:105AA00012E04846ECE700BF31F8107000EB060C3E
:105AB000401C23F81C7080B2A842F5D3294630461A
:105AC000904700206662DBE76046D9E700010020CE
:105AD0006C53002018B103494861002070476FF0F3
